:1000000027C036C035C034C033C032C0E8C030C0AD
:100010002FC02EC02DC099C02BC02AC029C028C017
:1000200027C000003A00370000003B003800010103
:100030000101010101010202020102040810204035
:10004000800402010000000000040302010000001F
:1000500011241FBECFE5D1E0DEBFCDBF20E0A0E67A
:10006000B0E001C01D92A537B207E1F7E0D025C18D
:10007000C7CF90E0FC01EC5BFF4F3491FC01E75CE3
:10008000FF4F2491FC01E25DFF4FE491EE23B9F0B4
:10009000332329F0323019F198F43130E1F0F0E0F7
:1000A000EE0FFF1FE85DFF4FA591B4918FB7F89455
:1000B000EC91611117C020952E232C938FBF0895CA
:1000C000333029F0343059F78FB58F7D02C08FB5AA
:1000D0008F778FBDE4CF80B78F7780BFE0CF80B7B9
:1000E0008F7DFBCF2E2BE9CFCF93DF9390E0FC01E8
:1000F000E75CFF4F2491825D9F4FFC018491882330
:10010000D1F090E0880F991FFC01EE5DFF4FA591A3
:10011000B491FC01E85DFF4FC591D491623071F458
:100120009FB7F8943C91822F809583238C93E8812C
:100130002E2B28839FBFDF91CF9108958FB7F8941E
:10014000EC912E2B2C938FBFF6CF1F920F920FB6F0
:100150000F9211242F933F938F939F93AF93BF934D
:100160008091710090917200A0917300B091740021
:100170003091700026E0230F2D3758F50296A11D0F
:10018000B11D209370008093710090937200A09332
:100190007300B093740080916C0090916D00A091F9
:1001A0006E00B0916F000196A11DB11D80936C008F
:1001B00090936D00A0936E00B0936F00BF91AF91CC
:1001C0009F918F913F912F910F900FBE0F901F9095
:1001D000189529E8230F0396A11DB11DD2CF1F92B8
:1001E0000F920FB60F9211242F933F934F935F936B
:1001F0006F937F938F939F93AF93BF93EF93FF93EF
:1002000061E082E036DF60E082E033DFFF91EF9172
:10021000BF91AF919F918F917F916F915F914F911E
:100220003F912F910F900FBE0F901F9018957894CB
:1002300080B7826080BF80B7816080BF83B78260F3
:1002400083BF83B7816083BF89B7816089BF1EBCCC
:100250008EB582608EBD8EB581608EBD8FB581609A
:100260008FBD329A319A3098379AF89410926B0079
:1002700010926A0062E084E037DF62E087E034DFFA
:1002800061E082E031DF61E086E02EDF1FBC89E0C3
:100290008EBD83E08BBD8BE28ABD82E08CB919BE36
:1002A0007894C0E0D0E060E086E0E3DE61E086E0E4
:0E02B000E0DE2097C1F3A4DEF6CFF894FFCF76
:00000001FF
