:1000000028C04CC04BC04AC049C048C0F9C046C017
:1000100045C044C043C0AAC041C040C03FC03EC06C
:100020003DC000003A00370000003B0038000101ED
:100030000101010101010202020102040810204035
:10004000800402010000000000040302010000001F
:10005000310211241FBECFE5D1E0DEBFCDBF10E0DD
:10006000A0E6B0E0E4E8F4E002C005900D92A2360C
:10007000B107D9F720E0A2E6B0E001C01D92A13F90
:10008000B207E1F710E0C9E2D0E003C02197FE011A
:10009000F1D1C832D107D1F730D1F2C1B1CF90E060
:1000A000FC01EC5BFF4F2491FC01E75CFF4F3491B6
:1000B000FC01E25DFF4FE491EE23A1F0222329F041
:1000C000223001F180F42130C9F0F0E0EE0FFF1F83
:1000D000E85DFF4FA591B4918FB7F894EC91E32BB5
:1000E000EC938FBF0895233029F0243071F78FB53A
:1000F0008F7D02C08FB58F778FBDE7CF80B78F77A9
:1001000080BFE3CF80B78F7DFBCFCF93DF9390E0AD
:10011000FC01E75CFF4F2491825D9F4FFC018491BD
:100120008823D1F090E0880F991FFC01EE5DFF4F0E
:10013000A591B491FC01E85DFF4FC591D491611187
:100140000EC09FB7F8948C91E22FE0958E238C938C
:100150002881E223E8839FBFDF91CF9108958FB775
:10016000F894EC91E22BEC938FBFF6CF1F920F9295
:100170000FB60F9211242F933F938F939F93AF93BA
:10018000BF938091ED009091EE00A091EF00B091AF
:10019000F0003091EC0026E0230F2D3758F5029641
:1001A000A11DB11D2093EC008093ED009093EE0013
:1001B000A093EF00B093F0008091E8009091E900E7
:1001C000A091EA00B091EB000196A11DB11D8093B2
:1001D000E8009093E900A093EA00B093EB00BF9190
:1001E000AF919F918F913F912F910F900FBE0F90E4
:1001F0001F90189529E8230F0396A11DB11DD2CF9A
:100200001F920F920FB60F9211242F933F938F934B
:100210009F93EF93FF9336B3809161008A3208F089
:100220004DC08370833059F48091630080FD43C0DA
:1002300018BA8091630086958068809363008091EE
:1002400061008F5F8093610020916000243208F08C
:100250004FC0822F837009F58091620090E09595E0
:10026000879530FD8068809362002032B1F48091E0
:10027000A4009091A500891B80958F7371F08091E7
:100280006200E091A400F0E0EC59FF4F8083809180
:10029000A4008F5F8F738093A4002F5F2093600072
:1002A000FF91EF919F918F913F912F910F900FBEF2
:1002B0000F901F90189582E088BBBBCF8091E6001D
:1002C0009091E700891B8F7309F4BECFE091E7009E
:1002D000F0E0EA55FF4F8081809363008091E70052
:1002E0008F5F8F738093E7001092610018BAACCFD4
:1002F00030FDD6CF10926000D3CF789480B7826063
:1003000080BF80B7816080BF83B7826083BF83B7BF
:10031000816083BF89B7816089BF1EBC8EB5826052
:100320008EBD8EB581608EBD8FB581608FBD329AD6
:10033000319A3098379AF89489E0B1DE61E089E02B
:10034000E4DE60E08AE0E1DE60E083E0DEDE60E0E3
:1003500084E0DBDE60E086E0D8DE85E0A0DE61E000
:1003600085E0D3DE1FBC89E08EBD1BBC8FEC8ABD4F
:1003700082E08CB919BE88E18DB9789410E4C0E0B0
:10038000D0E0CB99FECF8091E6009091E7002091DC
:10039000A4003091A500891B80958F73803108F0EF
:1003A0008FE090E044E0880F991F4A95E1F7231B06
:1003B0002F73203108F02FE0822B8FB91EB9769968
:1003C00006C0CB9BFCCF2097E1F21ADEDACF8FB1CB
:1003D000823519F5E091A500F0E0EC59FF4F8081DE
:1003E0008FB91EB9769903C0CB9BFCCFECCFE091BF
:1003F000A500F0E0EC59FF4F80818FB91EB98091C4
:10040000A4009091A500891B8F7361F38091A500D2
:100410008F5F8F738093A500E5CF8335F9F41FB804
:100420001EB9769903C0CB9BFCCFCDCF9FB11FB82F
:100430001EB98091E6002091E700821B80958F73A2
:1004400081F3E091E600F0E0EA55FF4F9083809160
:10045000E6008F5F8F738093E600E3CFCB9BFECFE8
:10046000B2CF1092E6001092E7001092A400109212
:10047000A5000895EE0FFF1F0590F491E02D09945B
:04048000F894FFCF1E
:020484006363B0
:00000001FF
