:1000000027C041C040C03FC03EC03DC0EAC03BC069
:100010003AC039C038C09BC036C035C034C033C0C8
:1000200032C000003A00370000003B0038000101F8
:100030000101010101010202020102040810204035
:10004000800402010000000000040302010000001F
:1000500011241FBECFE5D1E0DEBFCDBF10E0A0E68A
:10006000B0E0E2E6F3E002C005900D92A236B107DF
:10007000D9F720E0A2E6B0E001C01D92AD37B2078B
:10008000E1F70BD16CC1BCCFEDE4F0E08491E2E488
:10009000F0E09491E7E3F0E0E491EE23A1F088230F
:1000A00029F0823001F180F48130C9F0F0E0EE0FE8
:1000B000FF1FE85DFF4FA591B4918FB7F894EC91C5
:1000C000E92BEC938FBF0895833029F0843071F7CA
:1000D0008FB58F7D02C08FB58F778FBDE7CF80B78B
:1000E0008F7780BFE3CF80B78F7DFBCFCF93DF9338
:1000F00090E0FC01E75CFF4F2491825D9F4FFC0183
:1001000084918823D1F090E0880F991FFC01EE5D67
:10011000FF4FA591B491FC01E85DFF4FC591D491CB
:1001200061110EC09FB7F8948C91E22FE0958E2359
:100130008C932881E223E8839FBFDF91CF910895BC
:100140008FB7F894EC91E22BEC938FBFF6CF1F9210
:100150000F920FB60F9211242F933F938F939F937B
:10016000AF93BF938091790090917A00A0917B002A
:10017000B0917C003091780026E0230F2D3758F5A0
:100180000296A11DB11D2093780080937900909371
:100190007A00A0937B00B0937C00809174009091D2
:1001A0007500A0917600B09177000196A11DB11D58
:1001B0008093740090937500A0937600B0937700BD
:1001C000BF91AF919F918F913F912F910F900FBE53
:1001D0000F901F90189529E8230F0396A11DB11DBC
:1001E000D2CF1F920F920FB60F9211242F933F93ED
:1001F0008F939F9336B3809161008A32D8F58370D4
:10020000833059F480916F0080FD31C018BA80911D
:100210006F008695806880936F00809161008F5F8A
:100220008093610020916000243290F5822F8370CA
:1002300091F480916E0090E09595879530FD8068EF
:1002400080936E00203239F480916E0080937200AA
:1002500081E0809373002F5F209360009F918F91C6
:100260003F912F910F900FBE0F901F90189582E035
:1002700088BBCDCF809171008823A1F2809170005E
:1002800080936F00109271001092610018BACACF6B
:1002900030FDE4CF10926000E1CF789480B78260A7
:1002A00080BF80B7816080BF83B7826083BF83B720
:1002B000816083BF89B7816089BF1EBC8EB58260B3
:1002C0008EBD8EB581608EBD8FB581608FBD329A37
:1002D000319A3098379AF894109271001092730006
:1002E000D3DE61E089E002DF60E08AE0FFDE60E00B
:1002F00083E0FCDE60E084E0F9DE60E086E0F6DECC
:10030000C3DE60E085E0F2DE1FBC89E08EBD1BBC71
:100310008FEC8ABD82E08CB919BE7894C1E0D1E23D
:1003200000E010E0809173008823E1F38091720077
:1003300010927300909171009111FCCF8093700026
:10034000C0937100809171008111FCCFD093700037
:10035000C09371000115110529F352DEE3CFF89423
:02036000FFCFCD
:020362006363D3
:00000001FF
